:100000000C942A000C94E4010C940D020C9436021A
:100010000C9447000C9447000C9447000C94470044
:100020000C9447000C9447000C9447000C94470034
:100030000C9447000C9447000C9447000C94470024
:100040000C94B4000C9447000C9447000C944700A7
:100050000C94470011241FBECFE5D8E0DEBFCDBF12
:1000600010E0A0E6B0E0E6E0F3E102C005900D92FA
:10007000AA3FB107D9F711E0AAEFB0E001C01D9285
:10008000A630B107E1F70E94DC080C9481090C94BA
:1000900000003E9A3F983D9A3598339886B1887F04
:1000A00086B986B1876086B9379A0895982FFB0183
:1000B0006115710511F482E008958091DA008430B1
:1000C00011F086E0089585E08093DA0087B1807EA4
:1000D00087B987B1892B87B9369A80E090E0A0E094
:1000E000B0E003C00196A11DB11D349909C080354F
:1000F00023EC920720E0A20720E0B20799F70EC098
:100100008055934CA040B04048F4349A85B1808328
:10011000118284E08093DA0080E0089583E00895FE
:10012000982F61157105F1F041155105D9F08091B5
:10013000DA00843011F086E0089585E08093DA00DB
:100140007093FB006093FA005093FD004093FC0015
:1001500087B1807E87B987B1892B87B9369A339A60
:1001600080E0089582E008951F920F920FB60F92DB
:1001700011242F933F934F935F936F937F938F93AC
:100180009F93AF93BF93EF93FF93E091FA00F091A9
:10019000FB00309719F085B180831182339884E099
:1001A0008093DA00E091FC00F091FD00309709F0B7
:1001B0000995FF91EF91BF91AF919F918F917F91A1
:1001C0006F915F914F913F912F910F900FBE0F90C4
:1001D0001F90189581E067E040E00E94D5020895E5
:1001E00081E067E041E00E94D502089581E067E088
:1001F00041E00E945F02089581E061E040E00E94DA
:10020000D50281E062E040E00E94D50208959FEFB0
:10021000899FC001112464E670E00E9430096CBF20
:1002200081E061E041E00E94D50281E062E040E0CF
:100230000E94D502089581E061E041E00E945F02E2
:1002400081E062E041E00E945F0281E063E041E022
:100250000E945F028AE683BF12BE8FEF8CBF81E0EF
:1002600061E040E00E94D50281E062E040E00E944F
:10027000D502089585B78E7F85BF85B7826085BF1B
:100280008BB78F7B8BBF089585B78B7F85BF85B775
:10029000886085BF8BB78F778BBF089584B78F7BBE
:1002A00084BF8BB780628BBF0895813031F181307C
:1002B00020F0823009F04BC03FC0623079F06330EB
:1002C00020F4613009F045C006C0633069F0643045
:1002D00009F03FC00CC085B78E7F02C085B7816032
:1002E00085BF85B78D7F23C085B78E7F02C085B758
:1002F000816085BF85B782601AC0623069F0633063
:1003000018F4613031F505C0633061F0643009F5EF
:1003100010C085B78B7F02C085B7846085BF85B765
:10032000877F05C085B78B7F85BF85B7886085BF10
:100330000EC085B78460F8CF613019F0623049F49F
:1003400003C084B78F7B02C084B7806484BF80E021
:10035000089581E00895813049F0813020F08230A5
:1003600051F081E008958BB7806402C08BB780683C
:100370008BBF80E008958BB780628BBF80E00895CB
:10038000813049F0813020F0823051F081E00895D1
:100390008BB78F7B02C08BB78F778BBF80E00895C0
:1003A0008BB78F7D8BBF80E008956115710511F4C7
:1003B00081E00895E82FF0E0EE0FFF1FE250FF4FBD
:1003C0007183608380E008951F920F920FB60F92A1
:1003D00011242F933F934F935F936F937F938F934A
:1003E0009F93AF93BF93EF93FF93E091FE00F09143
:1003F000FF00309709F00995FF91EF91BF91AF9100
:100400009F918F917F916F915F914F913F912F912C
:100410000F900FBE0F901F9018951F920F920FB65E
:100420000F9211242F933F934F935F936F937F937A
:100430008F939F93AF93BF93EF93FF93E09100014E
:10044000F0910101309709F00995FF91EF91BF916B
:10045000AF919F918F917F916F915F914F913F915C
:100460002F910F900FBE0F901F9018951F920F9213
:100470000FB60F9211242F933F934F935F936F9377
:100480007F938F939F93AF93BF93EF93FF93E091ED
:100490000201F0910301309709F00995FF91EF9166
:1004A000BF91AF919F918F917F916F915F914F918C
:1004B0003F912F910F900FBE0F901F9018956830AD
:1004C00008F072C04423D1F58130A1F0813030F0C2
:1004D0008230E1F0833009F067C024C02AB381E0A4
:1004E00090E002C0880F991F6A95E2F780958223F9
:1004F0008ABB089527B381E090E002C0880F991F5E
:100500006A95E2F78095822387BB089524B381E042
:1005100090E002C0880F991F6A95E2F780958223C8
:1005200084BB089521B381E090E002C0880F991F39
:100530006A95E2F78095822381BB08954130A1F549
:10054000813091F0813028F08230C9F0833061F53C
:1005500021C02AB381E090E002C0880F991F6A95FC
:10056000E2F7282B2ABB089527B381E090E002C070
:10057000880F991F6A95E2F7282B27BB089524B3AB
:1005800081E090E002C0880F991F6A95E2F7282B5E
:1005900024BB089521B381E090E002C0880F991F29
:1005A0006A95E2F7282B21BB0895683008F072C0E5
:1005B0004130B1F5813099F0813030F08230D1F0A6
:1005C000833009F067C021C02BB381E090E002C006
:1005D000880F991F6A95E2F7282B2BBB089528B343
:1005E00081E090E002C0880F991F6A95E2F7282BFE
:1005F00028BB089525B381E090E002C0880F991FC1
:100600006A95E2F7282B25BB089522B381E090E09C
:1006100002C0880F991F6A95E2F7282B22BB089524
:100620004423C1F5813099F0813028F08230D9F02F
:10063000833081F524C02BB381E090E002C0880FA5
:10064000991F6A95E2F7809582238BBB089528B3A2
:1006500081E090E002C0880F991F6A95E2F78095CB
:10066000822388BB089525B381E090E002C0880F03
:10067000991F6A95E2F78095822385BB089522B37E
:1006800081E090E002C0880F991F6A95E2F780959B
:10069000822382BB0895FA014115510511F168309A
:1006A00000F5813049F0813028F0823039F0833014
:1006B000C1F40EC089B303C086B301C083B390E018
:1006C00002C0959587956A95E2F7817080830895B9
:1006D00080B390E002C0959587956A95E2F78170A6
:1006E00080830895813049F0813028F0823039F0DC
:1006F000833041F406C06ABB089567BB089564BBAC
:10070000089561BB0895813049F0813028F082302E
:1007100039F0833041F406C06BBB089568BB08957F
:1007200065BB089562BB08956830A0F5813091F0F3
:10073000813028F08230C9F0833061F521C02BB3BD
:1007400081E090E002C0880F991F6A95E2F72827A0
:100750002BBB089528B381E090E002C0880F991F59
:100760006A95E2F7282728BB089525B381E090E039
:1007700002C0880F991F6A95E2F7282725BB0895C4
:1007800022B381E090E002C0880F991F6A95E2F7DA
:10079000282722BB08958FB780688FBF08958FB731
:1007A0008F778FBF0895CF92DF92EF92FF920F93D2
:1007B0001F93DF93CF930F92CDB7DEB700E010E029
:1007C0007E010894E11CF11CF801E551FF4FC08047
:1007D00082E06C2D40E00E94D502DD2482E060E0E2
:1007E000A7010E944B038981882319F4E0E0F0E01F
:1007F00026C0DD24D39482E061E0A7010E944B0370
:100800008981882319F4E1E0F0E019C022E0D22EBA
:1008100082E062E0A7010E944B038981882319F4DA
:10082000E2E0F0E00CC093E0D92E82E063E0A701A3
:100830000E944B0389818823C9F4E3E0F0E0EE0FC6
:10084000FF1FEE0FFF1FE00FF11FE552FF4F10815A
:100850007E010894E11CF11C05C082E06D2DA7010A
:100860000E944B0389818823C1F30CC082E06C2D68
:1008700041E00E94D5020F5F1F4F0430110509F0BF
:10088000A3CF1FEF812F0F90CF91DF911F910F9179
:10089000FF90EF90DF90CF90089582E060EF0E948C
:1008A000720382E06FE00E94830308951F93182F64
:1008B000482F417083E064E00E94D502412F4695A5
:1008C000417083E065E00E94D50216951695412F90
:1008D000417083E066E00E94D5021695117083E0B6
:1008E00067E0412F0E94D5021F91089581E066E0E4
:1008F00041E00E94D50280EA9FE00197F1F781E094
:1009000066E040E00E94D50208951F93182F81E011
:1009100065E041E00E94D502812F82958F700E9490
:1009200056040E947604812F0E9456040E94760489
:100930001F910895AF92BF92CF92DF92EF92FF92F4
:100940000F931F93DF93CF93CDB7DEB72A970FB6E0
:10095000F894DEBF0FBECDBF6B017C016115710540
:100960008105910521F480E30E94850445C097FF2D
:100970000BC08DE20E948504F094E094D094C09462
:10098000C11CD11CE11CF11C00E05E010894A11CFB
:10099000B11CC701B6012AE030E040E050E00E94FF
:1009A0004409162FC701B6012AE030E040E050E0CC
:1009B0000E944409C901DA016C017D01F501E00FD3
:1009C000F11D105D10830F5FC114D104E104F10427
:1009D00001F7102F1150E12EFF24E7FCF094EA0CF0
:1009E000FB1C08C0F70180810E9485041150089407
:1009F000E108F10817FFF6CF2A960FB6F894DEBF8C
:100A00000FBECDBFCF91DF911F910F91FF90EF905F
:100A1000DF90CF90BF90AF9008951F93CF93DF9357
:100A2000EC01009759F010E003C00E9485041F5F9D
:100A3000FE01E10FF11D80818823B9F7DF91CF918D
:100A40001F9108951F93182F81E065E040E00E94F8
:100A5000D502812F82958F700E9456040E947604E1
:100A6000812F0E9456040E9476041F9108956623E8
:100A700019F0613009F4805C80680E9422050895B5
:100A80004F925F926F927F928F929F92AF92BF929E
:100A9000CF92DF92EF92FF920F931F93DF93CF934A
:100AA000CDB7DEB760970FB6F894DEBF0FBECDBFEF
:100AB000762E672E582E492E262F372F482F592F46
:100AC000C901DA015C016D010DE04E010894811C41
:100AD000911CC601B50120E130E040E050E00E94E9
:100AE00044099B01AC012A153B054C055D05A1F4A9
:100AF000E02FFF27E7FDF095E80DF91D108201506A
:100B0000C601B50120E130E040E050E00E94440918
:100B1000C901DA015C016D018FEFA816B104C104AF
:100B2000D10409F034F5E02EFF24E7FCF094F40141
:100B3000EE0DFF1DF88BEF87C601B50120E130E017
:100B400040E050E00E944409EF85F8896083C601C7
:100B5000B50120E130E040E050E00E944409C901C5
:100B6000DA015C016D01EC0EFD1EF701A08202505E
:100B70001EC0F0E1AF16F1E0BF06F0E0CF06F0E0F6
:100B8000DF06ACF0E02FFF27E7FDF095E80DF91D3B
:100B9000D601C5018F709070A070B070808384E022
:100BA000D594C794B794A7948A95D1F7015007FFBD
:100BB00090CF672D762D852D942D0E949A0480E686
:100BC00090E00E940D0580E061E00E94370589E613
:100BD00090E00E940D056E010894C11CD11C8E018D
:100BE000015F1F4FF60160816A3030F470E080E0F1
:100BF00090E00E949A041DC06C3091F06D3028F492
:100C00006A3051F06B30A9F409C06E3069F06E3073
:100C100048F06F3071F40AC081E409C082E407C073
:100C200083E405C084E403C085E401C086E40E9437
:100C300085040894C11CD11CC016D10699F6609693
:100C40000FB6F894DEBF0FBECDBFCF91DF911F91DD
:100C50000F91FF90EF90DF90CF90BF90AF909F905B
:100C60008F907F906F905F904F9008950F931F9398
:100C7000DF93CF93CDB7DEB72E970FB6F894DEBFD4
:100C80000FBECDBFAB01BC0120E030E08E010F5F95
:100C90001F4FF801E20FF31FDB01CA01022E04C04F
:100CA000B595A795979587950A94D2F7817080831B
:100CB0002F5F3F4F2E30310561F7CB01BA010E9403
:100CC0009A048CE690E00E940D0580E061E00E94AD
:100CD000370588E790E00E940D058E01025F1F4FE7
:100CE000F801608170E080E090E00E949A04015079
:100CF00010400C171D07A1F72E960FB6F894DEBF13
:100D00000FBECDBFCF91DF911F910F910895DF925C
:100D1000EF92FF920F931F93CF93DF938C01F62EE8
:100D2000E42ED22E862F880F880F880F80640E94B1
:100D30002205C0E0D0E0F801EC0FFD1F80810E9489
:100D400085042196C830D105B1F78E2D6D2D0E94F6
:100D500037058F2D0E948504DF91CF911F910F9150
:100D6000FF90EF90DF90089583E064E041E00E94FF
:100D70005F0283E065E041E00E945F0283E066E09D
:100D800041E00E945F0283E067E041E00E945F0271
:100D900081E065E041E00E945F0281E066E041E0C1
:100DA0000E945F0280E991E028EC30E0F901319780
:100DB000F1F70197D9F783E064E041E00E945F0218
:100DC00082E00E9456040E94760482E00E9456044B
:100DD0000E94760488E00E9456040E9476048CE00B
:100DE0000E94220581E00E942205089580E060E0D3
:100DF0000E94830381E060E040E00E94D50281E030
:100E000064E040E00E94D50208958430D9F0853036
:100E100038F4823089F0833090F4813091F509C044
:100E20008630B1F0863088F08730B9F0883049F5E7
:100E30001BC080E064E00EC080E06CE00BC080E08E
:100E40006CE108C080E06CE305C080E06CE702C0A4
:100E500080E06CEF0E948303089580E06CEF0E94B5
:100E6000830381E060E00BC080E06CEF0E948303AD
:100E700081E060E041E00E94D50281E064E041E071
:100E80000CC080E060E00E94830381E060E040E00D
:100E90000E94D50281E064E040E00E94D5020895FE
:100EA00080E06CEF0E94720381E060E041E00E940C
:100EB0005F0281E064E041E00E945F020895DF93F9
:100EC000CF930F92CDB7DEB781E0BE016F5F7F4F4A
:100ED0000E9456009981953110F488E021C0892F35
:100EE0008551843110F487E01BC0892F89528431E9
:100EF00010F486E015C0892F8D538A3010F485E0F8
:100F00000FC0892F87548A3010F484E009C0892FDC
:100F100081558A3010F483E003C09B3528F082E0CD
:100F2000809304010E94F606809104010E94050747
:100F300086E061E00E9437056091040170E080E086
:100F400090E00E949A040F90CF91DF91089581E084
:100F50000E9422058BE790E00E940D0580E061E091
:100F60000E94370585E890E00E940D05089580E015
:100F700062E00E9437058CE890E00E940D0588E948
:100F80009AE328EC30E0F9013197F1F70197D9F7AE
:100F900081E00E94220508954F925F926F927F92A6
:100FA0008F929F92AF92BF92CF92DF92FF920F9358
:100FB0001F93DF93CF93CDB7DEB72A970FB6F89480
:100FC000DEBF0FBECDBF2E010894411C511C35E081
:100FD000632E712C6C0E7D1E28ECC22ED12C96E057
:100FE000A92EB12CAC0EBD1E8AE0882E912C8C0E41
:100FF0009D1E89E990E00E940D0580E061E00E945D
:10100000370582010E94D3038F3FE1F3F8018193FA
:101010008F010E94850406151705A1F78981813388
:1010200009F06EC08A81823309F06AC08B818333F4
:1010300009F066C08C81843309F062C081E00E94AF
:10104000220586EA90E00E940D0580E061E00E94A2
:10105000370585011BC00E94D3038F3FE1F3F801E0
:1010600080830E94850488EE93E0F6013197F1F7C2
:101070000197D9F78F2D61E00E9437058AE20E941F
:1010800085040F5F1F4F0815190519F0F02EFA1887
:10109000E2CF81E00E9422058E81843329F58F8181
:1010A000833311F588858233F9F489858133E1F43E
:1010B00089EB90E00E940D050E94A7072A960FB6C3
:1010C000F894DEBF0FBECDBFCF91DF911F910F917E
:1010D000FF90DF90CF90BF90AF909F908F907F90C8
:1010E0006F905F904F90089581EC90E00E940D0505
:1010F00080E197E2F6013197F1F70197D9F70EC039
:1011000081E00E94220581EC90E00E940D0580E1C3
:1011100097E2F6013197F1F70197D9F781E00E9444
:10112000220567CF0E94F1088093050186E060E008
:101130000E9437056091050170E080E090E00E9418
:101140009A04909105019D3208F18FE50E940701F4
:1011500081E00E9422058FEC90E00E940D050E9424
:10116000F00088EE93E028EC30E0F9013197F1F7D8
:101170000197D9F70E94EA0088EE93E028EC30E06E
:10118000F9013197F1F70197D9F70895892F835223
:101190008A3010F480E50AC0892F89518A3010F412
:1011A0008CE304C09451953020F48EE10E94070135
:1011B00008950E94FC0008950E94B4060E944D0408
:1011C0000E9449000E941B010E94F6000E945007E5
:1011D0000E94B7070E94CC070E945F070E949208F6
:1011E000FBCFDF93CF9300D0CDB7DEB780E0BE0159
:1011F0006F5F7F4F0E94560069817A8180E090E0A6
:1012000024EF31E040E050E00E941109DC01CB0105
:10121000892F9A2FAB2FBB270F900F90CF91DF9183
:101220000895629FD001739FF001829FE00DF11D30
:10123000649FE00DF11D929FF00D839FF00D749F50
:10124000F00D659FF00D9927729FB00DE11DF91FFC
:10125000639FB00DE11DF91FBD01CF011124089559
:10126000AA1BBB1B51E107C0AA1FBB1FA617B707CC
:1012700010F0A61BB70B881F991F5A95A9F78095E8
:101280009095BC01CD01089597FB092E05260ED03F
:1012900057FD04D014D00AD0001C38F45095409566
:1012A000309521953F4F4F4F5F4F0895F6F790953A
:1012B0008095709561957F4F8F4F9F4F0895A1E264
:1012C0001A2EAA1BBB1BFD010DC0AA1FBB1FEE1FC0
:1012D000FF1FA217B307E407F50720F0A21BB30B0B
:1012E000E40BF50B661F771F881F991F1A9469F787
:1012F00060957095809590959B01AC01BD01CF01E3
:061300000895F894FFCFF0
:1013060020746F204865783A0030780020746F208A
:1013160042696E6172793A0030620054656D703AC6
:1013260020202743004C4544733A200057656C63E0
:101336006F6D6520486F6D6500456E746572204956
:1013460044203A202000456E746572205061737304
:10135600776F7264203A20200057656C636F6D6565
:101366000057726F6E6720706173732F4944004196
:101376004C61726D204669726500043738392D3428
:1013860035362A3132332F52303D2B0405060731CC
:0A13960032333400343332310000EA
:00000001FF
