:100000000C942A000C949F090C94D2090C94050AB4
:100010000C9447000C9447000C9447000C94470044
:100020000C9447000C9447000C9447000C94470034
:100030000C9447000C9447000C9447000C94470024
:100040000C94C1060C9447000C9447000C94470094
:100050000C94470011241FBECFE5D8E0DEBFCDBF12
:1000600011E0A0E6B0E0E4E5F2E302C005900D92F5
:10007000A630B107D9F711E0A6E0B1E001C01D92AA
:10008000A231B107E1F70E94DB130C9428190C94FC
:100090000000EF92FF920F931F937B018C0120E0F1
:1000A00030E040E05FE40E94490388238CF0C801FF
:1000B000B70120E030E040E05FE40E94C1010E940F
:1000C000A9039B01AC01205030404040504806C07D
:1000D000C801B7010E94A9039B01AC01B901CA0183
:1000E0001F910F91FF90EF900895A0E0B0E0EBE733
:1000F000F0E00C94F118DC012B01FA019C91923094
:1001000008F439C1EB018881823008F433C194309E
:1001100069F4843009F02FC111969C91119789815F
:10012000981709F428C1AAEDB0E025C1843009F47C
:1001300021C18230A9F4923009F01DC19A01AD01AC
:1001400088E0EA010990AE01E90109929E0181501F
:10015000C1F7E201898111969C918923818308C1AD
:10016000923009F407C112962D903C901397EB0141
:100170008A819B811496AD90BD90CD90DC901797AD
:10018000EC80FD800E811F819101281B390BB90184
:1001900037FF04C066277727621B730B6032710537
:1001A0000CF061C0121613066CF537014801062EDB
:1001B00004C096948794779467940A94D2F721E0C8
:1001C00030E040E050E004C0220F331F441F551FB1
:1001D0006A95D2F721503040404050402E213F21B7
:1001E00040235123211531054105510521F021E01E
:1001F00030E040E050E079018A01E628F72808293C
:1002000019293CC0232BD1F1260E371E350146019A
:10021000062E04C096948794779467940A94D2F734
:1002200021E030E040E050E004C0220F331F441FC3
:10023000551F6A95D2F721503040404050402A2146
:100240003B214C215D21211531054105510521F04E
:1002500021E030E040E050E059016A01A628B728CB
:10026000C828D9280BC0821593052CF01C01AA249C
:10027000BB24650103C0EE24FF24870111969C91E5
:10028000D20111968C91981709F445C0992339F041
:10029000A80197012A193B094C095D0906C0A6016E
:1002A00095012E193F09400B510B57FD08C01182D3
:1002B0003382228224833583468357831DC081E0A5
:1002C00081833382228288279927DC01821B930B4A
:1002D000A40BB50B84839583A683B7830DC0220F2F
:1002E000331F441F551F24833583468357838281E0
:1002F000938101979383828324813581468157813D
:10030000DA01C9010197A109B1098F5F9F4FAF4F72
:10031000BF4328F30BC0918333822282EA0CFB1C7B
:100320000C1D1D1DE482F5820683178383E0808304
:10033000248135814681578157FF1AC0C901AA27F8
:1003400097FDA095BA2F81709070A070B0705695EF
:10035000479537952795822B932BA42BB52B848318
:100360009583A683B7838281938101969383828349
:10037000DF0101C0D201CD01CDB7DEB7E2E10C94BF
:100380000D19A0E2B0E0E7ECF1E00C94FD186983F0
:100390007A838B839C832D833E834F835887E9E048
:1003A000EE2EF12CEC0EFD1ECE010196B7010E943F
:1003B000D2048E010F5E1F4FCE010596B8010E9438
:1003C000D2048A8991E089278A8BC701B801AE01DE
:1003D000475E5F4F0E9475000E94FD03A096E6E015
:1003E0000C941919A0E2B0E0E8EFF1E00C94FD18CC
:1003F00069837A838B839C832D833E834F835887C5
:10040000F9E0EF2EF12CEC0EFD1ECE010196B701A6
:100410000E94D2048E010F5E1F4FCE010596B801D7
:100420000E94D204C701B801AE01475E5F4F0E942F
:1004300075000E94FD03A096E6E00C941919A0E255
:10044000B0E0E5E2F2E00C94F11869837A838B83E3
:100450009C832D833E834F835887CE010196BE0136
:10046000675F7F4F0E94D204CE010596BE016F5E8A
:100470007F4F0E94D2049985923088F0898982301A
:10048000C8F0943019F4823051F404C0843029F457
:10049000923081F48AED90E0C6C0923049F420E0B9
:1004A0009A858A89981321E02A87CE010996BBC0D4
:1004B000823049F420E09A858A89981321E02A8BBA
:1004C000CE014196B0C02D843E844F8458886D88FB
:1004D0007E888F88988CEE24FF248701AA24BB2471
:1004E000650140E050E060E070E0E0E0F0E0C10174
:1004F00081709070892BE9F0E60CF71C081D191D1E
:100500009A01AB012A0D3B1D4C1D5D1D80E090E062
:10051000A0E0B0E0E614F7040805190520F481E036
:1005200090E0A0E0B0E0BA01A901480F591F6A1F8E
:100530007B1FAA0CBB1CCC1CDD1C97FE08C081E0F5
:1005400090E0A0E0B0E0A82AB92ACA2ADB2A3196B6
:10055000E032F10549F0660C771C881C991C569412
:10056000479437942794C3CFFA85EA892B893C892D
:100570008B859C85280F391F2E5F3F4F17C0CA01FE
:1005800081709070892B61F016950795F794E79428
:1005900080E090E0A0E0B0E8E82AF92A0A2B1B2BC3
:1005A00076956795579547952F5F3F4F77FDE7CF36
:1005B0000CC0440F551F661F771F17FD4160EE0CDE
:1005C000FF1C001F111F21503040403090E05907A0
:1005D00090E0690790E4790760F32B8F3C8FDB0193
:1005E000CA018F779070A070B07080349105A1051A
:1005F000B10561F447FD0AC0E114F10401051105DC
:1006000029F0405C5F4F6F4F7F4F40781A8EFE1786
:1006100011F081E08A8F4D8F5E8F6F8F78A383E01A
:10062000898FCE0149960E94FD03A096E2E10C94C9
:100630000D19A8E1B0E0EFE1F3E00C94FD18698337
:100640007A838B839C832D833E834F83588789E0F5
:10065000E82EF12CEC0EFD1ECE010196B7010E9492
:10066000D2048E010F5E1F4FCE010596B8010E9485
:10067000D2048985823040F08989823028F0C70110
:10068000B8010E944A0501C08FEF6896E6E00C941D
:100690001919A8E1B0E0EFE4F3E00C94FD186983C8
:1006A0007A838B839C832D833E834F83588789E095
:1006B000E82EF12CEC0EFD1ECE010196B7010E9432
:1006C000D2048E010F5E1F4FCE010596B8010E9425
:1006D000D2048985823040F08989823028F0C701B0
:1006E000B8010E944A0501C08FEF6896E6E00C94BD
:1006F0001919A8E1B0E0EFE7F3E00C94FD18698365
:100700007A838B839C832D833E834F83588789E034
:10071000E82EF12CEC0EFD1ECE010196B7010E94D1
:10072000D2048E010F5E1F4FCE010596B8010E94C4
:10073000D2048985823040F08989823028F0C7014F
:10074000B8010E944A0501C081E06896E6E00C9479
:100750001919ACE0B0E0EFEAF3E00C9401196983F9
:100760007A838B839C83CE010196BE016B5F7F4FA2
:100770000E94D2048D81823061F1823050F1843048
:1007800021F48E81882351F12EC02F81388537FDC9
:1007900020C06E812F3131051CF06623F9F023C093
:1007A0008EE190E0821B930B29853A854B855C8511
:1007B00004C056954795379527958A95D2F76623B5
:1007C000B1F050954095309521953F4F4F4F5F4F79
:1007D0000EC020E030E040E050E009C02FEF3FEFD6
:1007E0004FEF5FE704C020E030E040E050E8B9019F
:1007F000CA012C96E2E00C941D19DF92EF92FF9251
:100800000F931F93FC01E480F58006811781D1804E
:100810008081823048F480E090E0A0E1B0E0E82AF6
:10082000F92A0A2B1B2BA5C0843009F49FC0823003
:1008300021F4EE24FF24870105C0E114F104010531
:10084000110519F4E0E0F0E096C0628173819FEF3A
:10085000623879070CF05BC022E83FEF261B370BAC
:100860002A3131052CF020E030E040E050E02AC091
:10087000B801A701022E04C0769567955795479554
:100880000A94D2F781E090E0A0E0B0E004C0880FC5
:10089000991FAA1FBB1F2A95D2F70197A109B10979
:1008A0008E219F21A023B1230097A105B10521F03E
:1008B00081E090E0A0E0B0E09A01AB01282B392B59
:1008C0004A2B5B2BDA01C9018F779070A070B07052
:1008D00080349105A105B10539F427FF09C0205CDA
:1008E0003F4F4F4F5F4F04C0215C3F4F4F4F5F4F13
:1008F000E0E0F0E02030A0E03A07A0E04A07A0E402
:100900005A0710F0E1E0F0E079018A0127C0603871
:10091000710564F5FB01E158FF4FD801C7018F77DE
:100920009070A070B07080349105A105B10539F4C4
:10093000E7FE0DC080E490E0A0E0B0E004C08FE3EB
:1009400090E0A0E0B0E0E80EF91E0A1F1B1F17FFA1
:1009500005C016950795F794E794319687E01695AC
:100960000795F794E7948A95D1F705C0EE24FF2404
:100970008701EFEFF0E06E2F679566276795902F60
:100980009F77D794DD24D7948E2F8695492F462BB9
:10099000582F5D29B701CA011F910F91FF90EF9069
:1009A000DF900895FC01DB01408151812281622F9B
:1009B0006F7770E0221F2227221F9381892F880FD3
:1009C000822B282F30E0991F9927991F11969C930D
:1009D000119721153105A9F54115510561057105DD
:1009E00011F482E037C082E89FEF13969C938E93B8
:1009F00012979A01AB0167E0220F331F441F551F66
:100A00006A95D1F783E08C930DC0220F331F441FEA
:100A1000551F12968D919C911397019713969C9355
:100A20008E931297203080E0380780E0480780E4FA
:100A3000580758F314962D933D934D935C93179755
:100A400008952F3F310579F4411551056105710570
:100A500019F484E08C93089564FF03C081E08C93C3
:100A600012C01C9210C02F57304013963C932E9307
:100A7000129783E08C9387E0440F551F661F771F02
:100A80008A95D1F7706414964D935D936D937C9322
:100A9000179708951F93DC01FB019C91923008F495
:100AA00047C08081823008F443C0943051F41196DD
:100AB0001C91843099F58181682F70E0611B710968
:100AC0003FC0843021F0923031F48230B9F181811D
:100AD000882389F12DC011961C9111978230F1F075
:100AE00081811817D9F412962D913C911397828128
:100AF00093818217930794F028173907BCF0149656
:100B00008D919D910D90BC91A02D248135814681C0
:100B10005781281739074A075B0718F4112341F05A
:100B20000AC082179307A407B50740F4112319F0F0
:100B300061E070E005C06FEF7FEF02C060E070E041
:100B4000CB011F910895DF93CF93CDB7DEB7A7E216
:100B5000B0E0E7E2F0E0808180648C93A7E2B0E04F
:100B6000E7E2F0E080818F778C93A7E2B0E0E7E2E4
:100B7000F0E0808180628C93A6E2B0E0E6E2F0E0F3
:100B800080818F7D8C93A6E2B0E0E6E2F0E0808188
:100B9000877F8C93A6E2B0E0E6E2F0E08081887F78
:100BA0008C93A6E2B0E0E6E2F0E0808187608C936F
:100BB000A6E2B0E0E6E2F0E0808180688C93CF911D
:100BC000DF910895DF93CF93CDB7DEB728970FB6A7
:100BD000F894DEBF0FBECDBF8E8378876F831D82F2
:100BE0008F819885009709F46BC08091E200843072
:100BF00009F063C019821A821B821C8285E08093EF
:100C0000E200A7E2B0E0E7E2F0E08081807E8C9332
:100C1000A7E2B0E0E7E2F0E090818E81892B8C932F
:100C2000A6E2B0E0E6E2F0E0808180648C930BC045
:100C300089819A81AB81BC810196A11DB11D8983F7
:100C40009A83AB83BC83E6E2F0E0808182958F706B
:100C5000882F90E081709070009761F489819A816B
:100C6000AB81BC81803523EC920720E0A20720E015
:100C7000B207F0F289819A81AB81BC81803523EC87
:100C8000920720E0A20720E0B20718F083E08D83EE
:100C900019C0A6E2B0E0E6E2F0E0808180618C93CA
:100CA000E5E2F0E08081882F90E0EF81F885918384
:100CB000808384E08093E20005C086E08D8302C0DB
:100CC00082E08D838D8128960FB6F894DEBF0FBE2B
:100CD000CDBFCF91DF910895DF93CF9300D000D0A7
:100CE00000D0CDB7DEB78A837C836B835E834D8370
:100CF00019828B819C810097C1F18D819E81009723
:100D0000A1F18091E200843069F585E08093E200F2
:100D10008B819C8190930701809306018D819E8138
:100D20009093090180930801A7E2B0E0E7E2F0E0C8
:100D30008081807E8C93A7E2B0E0E7E2F0E09081D2
:100D40008A81892B8C93A6E2B0E0E6E2F0E0808114
:100D500080648C93A6E2B0E0E6E2F0E080818860F7
:100D60008C9305C086E0898302C082E089838981F3
:100D700026960FB6F894DEBF0FBECDBFCF91DF91A0
:100D800008951F920F920FB60F9211242F933F9345
:100D90004F935F936F937F938F939F93AF93BF9383
:100DA000EF93FF93DF93CF93CDB7DEB7809106012A
:100DB00090910701009759F0A0910601B0910701A9
:100DC000E5E2F0E08081882F90E08D939C93A6E28D
:100DD000B0E0E6E2F0E08081877F8C9384E080934E
:100DE000E2008091080190910901009729F0E091BB
:100DF0000801F09109010995CF91DF91FF91EF91E1
:100E0000BF91AF919F918F917F916F915F914F9122
:100E10003F912F910F900FBE0F901F901895DF9369
:100E2000CF93CDB7DEB781E067E041E00E94380A9A
:100E3000CF91DF910895DF93CF93CDB7DEB781E0F7
:100E400067E041E00E943C0BCF91DF910895DF9372
:100E5000CF93CDB7DEB781E067E040E00E943C0B66
:100E6000CF91DF910895DF93CF93CDB7DEB7E3E560
:100E7000F0E08AE68083E2E5F0E01082ECE5F0E065
:100E80008FEF8083CF91DF910895DF93CF93CDB71C
:100E9000DEB781E061E041E00E94380A81E062E073
:100EA00041E00E94380A81E063E041E00E94380A94
:100EB0000E94330781E061E040E00E943C0B81E04A
:100EC00062E040E00E943C0BCF91DF910895DF93F8
:100ED000CF930F92CDB7DEB78983ECE5F0E089813F
:100EE000482F50E0CA019C01220F331FC90196957B
:100EF000982F882797958795821B930B840F951FB2
:100F000024E630E0B9010E94A018CB01808381E083
:100F100061E041E00E943C0B81E062E040E00E9421
:100F20003C0B0F90CF91DF910895DF93CF93CDB716
:100F3000DEB781E061E040E00E943C0B81E062E0CE
:100F400040E00E943C0BCF91DF910895DF93CF9357
:100F5000CDB7DEB7A5E5B0E0E5E5F0E080818E7FB6
:100F60008C93A5E5B0E0E5E5F0E0808182608C93AC
:100F7000ABE5B0E0EBE5F0E080818F7B8C93CF9127
:100F8000DF910895DF93CF93CDB7DEB7A5E5B0E04D
:100F9000E5E5F0E080818B7F8C93A5E5B0E0E5E5A9
:100FA000F0E0808188608C93ABE5B0E0EBE5F0E0A9
:100FB00080818F778C93CF91DF910895DF93CF93CA
:100FC000CDB7DEB7A4E5B0E0E4E5F0E080818F7B4B
:100FD0008C93ABE5B0E0EBE5F0E0808180628C9330
:100FE000CF91DF910895DF93CF93CDB7DEB72B97E5
:100FF0000FB6F894DEBF0FBECDBF8A836B83198214
:101000008A81282F30E03B872A878A859B8581301B
:10101000910509F46AC02A853B852230310509F41F
:10102000C3C08A859B85009709F0E0C08B81282F7B
:1010300030E039872887888599858230910529F1A4
:10104000288539852330310534F4888599858130A8
:10105000910561F047C0288539852330310521F19C
:10106000888599858430910571F13CC0A5E5B0E093
:10107000E5E5F0E080818E7F8C93A5E5B0E0E5E5C5
:10108000F0E080818D7F8C93B1C0A5E5B0E0E5E50F
:10109000F0E0808181608C93A5E5B0E0E5E5F0E0CB
:1010A00080818D7F8C93A2C0A5E5B0E0E5E5F0E0FE
:1010B00080818E7F8C93A5E5B0E0E5E5F0E080814E
:1010C00082608C9393C0A5E5B0E0E5E5F0E0808117
:1010D00081608C93A5E5B0E0E5E5F0E08081826079
:1010E0008C9384C081E0898381C08B81282F30E07C
:1010F0003F832E838E819F818230910529F12E813D
:101100003F812330310534F48E819F8181309105F8
:1011100061F047C02E813F812330310521F18E815E
:101120009F818430910571F13CC0A5E5B0E0E5E513
:10113000F0E080818B7F8C93A5E5B0E0E5E5F0E001
:101140008081877F8C9352C0A5E5B0E0E5E5F0E0B3
:10115000808184608C93A5E5B0E0E5E5F0E08081D6
:10116000877F8C9343C0A5E5B0E0E5E5F0E08081A2
:101170008B7F8C93A5E5B0E0E5E5F0E080818860A9
:101180008C9334C0A5E5B0E0E5E5F0E080818460B3
:101190008C93A5E5B0E0E5E5F0E0808188608C9374
:1011A00025C081E0898322C08B81282F30E03D83D8
:1011B0002C838C819D818130910531F02C813D8182
:1011C0002230310549F010C0A4E5B0E0E4E5F0E0DC
:1011D00080818F7B8C930AC0A4E5B0E0E4E5F0E069
:1011E000808180648C9302C081E0898389812B9601
:1011F0000FB6F894DEBF0FBECDBFCF91DF9108953B
:10120000DF93CF9300D000D0CDB7DEB78A831982A9
:101210008A81282F30E03C832B838B819C81813015
:10122000910589F02B813C8122303105A1F08B8121
:101230009C810097C1F4ABE5B0E0EBE5F0E0808184
:1012400080648C9312C0ABE5B0E0EBE5F0E0808108
:1012500080688C930AC0ABE5B0E0EBE5F0E08081FC
:1012600080628C9302C081E0898389810F900F9006
:101270000F900F90CF91DF910895DF93CF9300D01F
:1012800000D0CDB7DEB78A8319828A81282F30E05B
:101290003C832B838B819C818130910589F02B814C
:1012A0003C8122303105A1F08B819C810097C1F4F3
:1012B000ABE5B0E0EBE5F0E080818F7B8C9312C072
:1012C000ABE5B0E0EBE5F0E080818F778C930AC06E
:1012D000ABE5B0E0EBE5F0E080818F7D8C9302C060
:1012E00081E0898389810F900F900F900F90CF91AB
:1012F000DF910895DF93CF9300D000D0CDB7DEB754
:101300008A837C836B8319828B819C81009769F02F
:101310008A81882F90E0880F991FFC01E65FFE4FBD
:101320008B819C819183808302C081E08983898144
:101330000F900F900F900F90CF91DF9108951F9213
:101340000F920FB60F9211242F933F934F935F93F9
:101350006F937F938F939F93AF93BF93EF93FF937D
:10136000DF93CF93CDB7DEB780910A0190910B0147
:10137000009729F0E0910A01F0910B010995CF91B6
:10138000DF91FF91EF91BF91AF919F918F917F91ED
:101390006F915F914F913F912F910F900FBE0F90E2
:1013A0001F9018951F920F920FB60F9211242F9332
:1013B0003F934F935F936F937F938F939F93AF93DD
:1013C000BF93EF93FF93DF93CF93CDB7DEB78091B9
:1013D0000C0190910D01009729F0E0910C01F09122
:1013E0000D010995CF91DF91FF91EF91BF91AF91E1
:1013F0009F918F917F916F915F914F913F912F912D
:101400000F900FBE0F901F9018951F920F920FB65E
:101410000F9211242F933F934F935F936F937F937A
:101420008F939F93AF93BF93EF93FF93DF93CF93EC
:10143000CDB7DEB780910E0190910F01009729F092
:10144000E0910E01F0910F010995CF91DF91FF918D
:10145000EF91BF91AF919F918F917F916F915F912C
:101460004F913F912F910F900FBE0F901F901895A5
:10147000DF93CF93CDB7DEB727970FB6F894DEBFD3
:101480000FBECDBF89836A834B838A81883008F081
:10149000EAC08B81882309F074C08981282F30E04D
:1014A0003F832E838E819F818130910559F12E815A
:1014B0003F81223031052CF48E819F81009769F0A5
:1014C000D2C02E813F812230310589F18E819F81EA
:1014D0008330910509F440C0C6C0AAE3B0E0EAE356
:1014E000F0E08081482F8A81282F30E081E090E071
:1014F000022E02C0880F991F0A94E2F78095842378
:101500008C93B1C0A7E3B0E0E7E3F0E08081482F1F
:101510008A81282F30E081E090E0022E02C0880FFF
:10152000991F0A94E2F7809584238C939CC0A4E3CE
:10153000B0E0E4E3F0E08081482F8A81282F30E09A
:1015400081E090E0022E02C0880F991F0A94E2F712
:10155000809584238C9387C0A1E3B0E0E1E3F0E0C1
:101560008081482F8A81282F30E081E090E0022E90
:1015700002C0880F991F0A94E2F7809584238C9308
:1015800072C08B81813009F06EC08981282F30E0D4
:101590003D832C838C819D818130910549F12C8183
:1015A0003D81223031052CF48C819D81009761F0C2
:1015B0005AC02C813D812230310571F18C819D8191
:1015C00083309105E9F14FC0AAE3B0E0EAE3F0E02F
:1015D0008081482F8A81282F30E081E090E0022E20
:1015E00002C0880F991F0A94E2F7842B8C933BC0AA
:1015F000A7E3B0E0E7E3F0E08081482F8A81282F5D
:1016000030E081E090E0022E02C0880F991F0A941A
:10161000E2F7842B8C9327C0A4E3B0E0E4E3F0E08E
:101620008081482F8A81282F30E081E090E0022ECF
:1016300002C0880F991F0A94E2F7842B8C9313C081
:10164000A1E3B0E0E1E3F0E08081482F8A81282F18
:1016500030E081E090E0022E02C0880F991F0A94CA
:10166000E2F7842B8C9327960FB6F894DEBF0FBE5B
:10167000CDBFCF91DF910895DF93CF93CDB7DEB784
:1016800027970FB6F894DEBF0FBECDBF89836A835C
:101690004B838A81883008F0EAC08B81813009F061
:1016A0006FC08981282F30E03F832E838E819F81F8
:1016B0008130910549F12E813F81223031052CF492
:1016C0008E819F81009761F0D2C02E813F812230B0
:1016D000310571F18E819F8183309105E9F1C7C099
:1016E000ABE3B0E0EBE3F0E08081482F8A81282F64
:1016F00030E081E090E0022E02C0880F991F0A942A
:10170000E2F7842B8C93B3C0A8E3B0E0E8E3F0E009
:101710008081482F8A81282F30E081E090E0022EDE
:1017200002C0880F991F0A94E2F7842B8C939FC004
:10173000A5E3B0E0E5E3F0E08081482F8A81282F1F
:1017400030E081E090E0022E02C0880F991F0A94D9
:10175000E2F7842B8C938BC0A2E3B0E0E2E3F0E0ED
:101760008081482F8A81282F30E081E090E0022E8E
:1017700002C0880F991F0A94E2F7842B8C9377C0DC
:101780008B81882309F073C08981282F30E03D8345
:101790002C838C819D818130910559F12C813D8173
:1017A000223031052CF48C819D81009769F05FC057
:1017B0002C813D812230310589F18C819D818330DE
:1017C000910509F440C053C0ABE3B0E0EBE3F0E0B7
:1017D0008081482F8A81282F30E081E090E0022E1E
:1017E00002C0880F991F0A94E2F7809584238C9396
:1017F0003EC0A8E3B0E0E8E3F0E08081482F8A81B2
:10180000282F30E081E090E0022E02C0880F991F5F
:101810000A94E2F7809584238C9329C0A5E3B0E075
:10182000E5E3F0E08081482F8A81282F30E081E0D5
:1018300090E0022E02C0880F991F0A94E2F780956B
:1018400084238C9314C0A2E3B0E0E2E3F0E0808153
:10185000482F8A81282F30E081E090E0022E02C0DC
:10186000880F991F0A94E2F7809584238C9327961A
:101870000FB6F894DEBF0FBECDBFCF91DF910895B4
:10188000DF93CF9300D000D000D0CDB7DEB78983EF
:101890006A835C834B838B819C81009709F474C0BD
:1018A0008A81883008F070C08981282F30E03E831B
:1018B0002D834D815E814130510559F18D819E818D
:1018C0008230910534F42D813E812115310569F076
:1018D0005BC04D815E814230510579F18D819E81E1
:1018E0008330910509F43DC04FC0E9E3F0E0808109
:1018F000282F30E08A81882F90E0A90102C05595F9
:1019000047958A95E2F7CA018170EB81FC8180835B
:101910003BC0E6E3F0E08081282F30E08A81882F09
:1019200090E0A90102C0559547958A95E2F7CA0152
:101930008170EB81FC81808327C0E3E3F0E080814C
:10194000282F30E08A81882F90E0A90102C05595A8
:1019500047958A95E2F7CA018170EB81FC8180830B
:1019600013C0E0E3F0E08081282F30E08A81882FE7
:1019700090E0A90102C0559547958A95E2F7CA0102
:101980008170EB81FC81808326960FB6F894DEBFD0
:101990000FBECDBFCF91DF910895DF93CF9300D0DD
:1019A00000D0CDB7DEB789836A838981282F30E0E4
:1019B0003C832B838B819C8181309105D1F02B81DD
:1019C0003C81223031052CF48B819C81009761F0A1
:1019D0001EC02B813C812230310581F08B819C819E
:1019E0008330910581F013C0EAE3F0E08A818083BF
:1019F0000EC0E7E3F0E08A81808309C0E4E3F0E011
:101A00008A81808304C0E1E3F0E08A8180830F90C3
:101A10000F900F900F90CF91DF910895DF93CF93A8
:101A200000D000D0CDB7DEB789836A838981282FA3
:101A300030E03C832B838B819C8181309105D1F0F8
:101A40002B813C81223031052CF48B819C810097C5
:101A500061F01EC02B813C812230310581F08B81E9
:101A60009C818330910581F013C0EBE3F0E08A8123
:101A700080830EC0E8E3F0E08A81808309C0E5E35B
:101A8000F0E08A81808304C0E2E3F0E08A81808311
:101A90000F900F900F900F90CF91DF910895DF93EB
:101AA000CF9300D000D0CDB7DEB789836A838A8117
:101AB000883008F06EC08981282F30E03C832B836A
:101AC0008B819C818130910549F12B813C812230B1
:101AD00031052CF48B819C81009761F05AC02B81D9
:101AE0003C812230310571F18B819C8183309105DD
:101AF000E9F14FC0ABE3B0E0EBE3F0E08081482FC9
:101B00008A81282F30E081E090E0022E02C0880F09
:101B1000991F0A94E2F784278C933BC0A8E3B0E0B6
:101B2000E8E3F0E08081482F8A81282F30E081E0CF
:101B300090E0022E02C0880F991F0A94E2F78427D2
:101B40008C9327C0A5E3B0E0E5E3F0E08081482F67
:101B50008A81282F30E081E090E0022E02C0880FB9
:101B6000991F0A94E2F784278C9313C0A2E3B0E094
:101B7000E2E3F0E08081482F8A81282F30E081E085
:101B800090E0022E02C0880F991F0A94E2F7842782
:101B90008C930F900F900F900F90CF91DF9108953D
:101BA000DF93CF93CDB7DEB7AFE5B0E0EFE5F0E080
:101BB000808180688C93CF91DF910895DF93CF93DC
:101BC000CDB7DEB7AFE5B0E0EFE5F0E080818F772D
:101BD0008C93CF91DF910895DF93CF93CDB7DEB78C
:101BE00082E060EF0E94CD0C82E06FE00E940E0D5B
:101BF000CF91DF910895DF93CF9300D000D00F9263
:101C0000CDB7DEB78FEF8B8319825EC08981882FB5
:101C100090E0FC01E950FF4F908182E0692F40E0A5
:101C20000E943C0B1A823DC08A81882F90E0FC0103
:101C3000ED50FF4F90819E012C5F3F4F82E0692F56
:101C4000A9010E94400C8C81882341F58A81482F8C
:101C500050E08981282F30E0CA01880F991F880F32
:101C6000991F820F931FFC01ED51FF4F80818B83E1
:101C70000FC08A81882F90E0FC01ED50FF4F9081CA
:101C80009E012C5F3F4F82E0692FA9010E94400C0A
:101C90008C81882371F38B818D831CC08A818F5F37
:101CA0008A838A81843008F4BFCF8981882F90E0AD
:101CB000FC01E950FF4F908182E0692F41E00E94D2
:101CC0003C0B89818F5F89838981843008F49ECFA2
:101CD0008B818D838D810F900F900F900F900F90BF
:101CE000CF91DF910895DF93CF93CDB7DEB72E97D5
:101CF0000FB6F894DEBF0FBECDBF81E066E041E0D5
:101D00000E943C0B80E090E0A0E0B0E48B879C87D1
:101D1000AD87BE876B857C858D859E8520E030E014
:101D20004AEF54E40E941F02DC01CB018F839887A5
:101D3000A987BA876F81788589859A8520E030E008
:101D400040E85FE30E94790388232CF481E090E06F
:101D50009E838D833FC06F81788589859A8520E039
:101D60003FEF4FE757E40E94190318164CF56B85B7
:101D70007C858D859E8520E030E040E251E40E9424
:101D80001F02DC01CB01BC01CD010E944900DC0136
:101D9000CB019E838D830FC088EC90E09C838B8366
:101DA0008B819C810197F1F79C838B838D819E8130
:101DB00001979E838D838D819E81009769F714C062
:101DC0006F81788589859A850E944900DC01CB0165
:101DD0009E838D838D819E819A83898389819A8157
:101DE0000197F1F79A83898381E066E040E00E94E1
:101DF0003C0B2E960FB6F894DEBF0FBECDBFCF9131
:101E0000DF910895DF93CF930F92CDB7DEB789832B
:101E10008981982F917083E064E0492F0E943C0BE8
:101E200089818695982F917083E065E0492F0E9403
:101E30003C0B898186958695982F917083E066E0AA
:101E4000492F0E943C0B8981869586958695982F0F
:101E5000917083E067E0492F0E943C0B0F90CF9177
:101E6000DF910895DF93CF93CDB7DEB72E970FB6EE
:101E7000F894DEBF0FBECDBF83E064E041E00E9476
:101E8000380A83E065E041E00E94380A83E066E0BA
:101E900041E00E94380A83E067E041E00E94380A8E
:101EA00081E065E041E00E94380A81E066E041E0BF
:101EB0000E94380A80E090E0A0E2B2E48B879C8721
:101EC000AD87BE876B857C858D859E8520E030E063
:101ED0004AEF54E40E941F02DC01CB018F839887F4
:101EE000A987BA876F81788589859A8520E030E057
:101EF00040E85FE30E94790388232CF481E090E0BE
:101F00009E838D833FC06F81788589859A8520E087
:101F10003FEF4FE757E40E94190318164CF56B8505
:101F20007C858D859E8520E030E040E251E40E9472
:101F30001F02DC01CB01BC01CD010E944900DC0184
:101F4000CB019E838D830FC088EC90E09C838B83B4
:101F50008B819C810197F1F79C838B838D819E817E
:101F600001979E838D838D819E81009769F714C0B0
:101F70006F81788589859A850E944900DC01CB01B3
:101F80009E838D838D819E819A83898389819A81A5
:101F90000197F1F79A83898383E064E041E00E942E
:101FA000380A82E00E94020F0E94730E82E00E94B3
:101FB000020F0E94730E88E00E94020F0E94730EAF
:101FC0008CE00E94EF0F81E00E94EF0F2E960FB67B
:101FD000F894DEBF0FBECDBFCF91DF910895DF93A0
:101FE000CF930F92CDB7DEB7898381E065E040E003
:101FF0000E943C0B898182958F700E94020F0E9483
:10200000730E89810E94020F0E94730E0F90CF9170
:10201000DF910895DF93CF930F92CDB7DEB7898319
:1020200081E065E041E00E943C0B898182958F70E0
:102030000E94020F0E94730E89810E94020F0E946B
:10204000730E0F90CF91DF910895DF93CF9300D05F
:102050000F92CDB7DEB79B838A838A819B810097DD
:10206000D9F019820EC08981282F30E08A819B81A6
:10207000FC01E20FF31F80810E940A1089818F5FAB
:1020800089838981282F30E08A819B81FC01E20FBE
:10209000F31F8081882339F70F900F900F90CF9115
:1020A000DF910895DF93CF93CDB7DEB761970FB679
:1020B000F894DEBF0FBECDBF6E877F87888B998B6C
:1020C0001A828E859F85A889B9890097A105B105D7
:1020D00021F480E30E940A1069C08E859F85A8893B
:1020E000B989BB230CF043C08DE20E940A108E8593
:1020F0009F85A889B989B095A095909581959F4FA6
:10210000AF4FBF4F8E879F87A88BB98B30C08E850E
:102110009F85A889B9892AE030E040E050E0BC0101
:10212000CD010E94B418DC01CB018B838E859F8585
:10213000A889B9892AE030E040E050E0BC01CD0137
:102140000E94B418DA01C9018E879F87A88BB98BCA
:102150008A81282F30E08B81482F405DCE01049684
:10216000FC01E20FF31F40838A818F5F8A838E8593
:102170009F85A889B9890097A105B10541F68A8193
:102180008150898310C08981282F332727FD3095FE
:10219000CE010496FC01E20FF31F80810E940A1019
:1021A000898181508983898188236CF761960FB674
:1021B000F894DEBF0FBECDBFCF91DF910895DF93BE
:1021C000CF93CDB7DEB763970FB6F894DEBF0FBEDF
:1021D000CDBF688B798B8A8B9B8B198220C08981BC
:1021E000482F552747FD50958981282F332727FDF4
:1021F000309588899989AA89BB8904C0B595A79526
:10220000979587952A95D2F7282F2170CE010296AF
:10221000FC01E40FF51F208389818F5F8983898109
:102220008E30ECF288899989AA89BB89BC01CD01DD
:102230000E94521080E690E00E94251080E061E04C
:102240000E94C9128CE690E00E9425108DE08983DF
:1022500016C08981282F332727FD3095CE0102969D
:10226000FC01E20FF31F8081882F90E0A0E0B0E036
:10227000BC01CD010E9452108981815089838981DE
:1022800088233CF763960FB6F894DEBF0FBECDBF30
:10229000CF91DF9108950F931F93DF93CF93CDB725
:1022A000DEB769970FB6F894DEBF0FBECDBF6C8B5B
:1022B0007D8B8E8B9F8B8C899D89AE89BF8989830D
:1022C0009A83AB83BC838DE08D83CBC08C899D8941
:1022D000AE89BF8920E130E040E050E0BC01CD0193
:1022E0000E94B418DC01CB019C01AD018C899D8951
:1022F000AE89BF89281739074A075B0701F58D8129
:10230000282F332727FD3095CE010696FC01E20FDA
:10231000F31F10828D8181508D838C899D89AE89B8
:10232000BF8920E130E040E050E0BC01CD010E94D7
:10233000B418DA01C9018C8B9D8BAE8BBF8B8C8955
:102340009D89AE89BF898F3F9105A105B10511F027
:102350000CF04CC08D81082F112707FD10958C893A
:102360009D89AE89BF8920E130E040E050E0BC01AA
:10237000CD010E94B418DC01CB01282FCE010696B6
:10238000FC01E00FF11F20838D81992787FD909537
:102390008C01015010408C899D89AE89BF8920E154
:1023A00030E040E050E0BC01CD010E94B418DA01F9
:1023B000C901282FCE010696FC01E00FF11F2083F2
:1023C0008D8182508D838C899D89AE89BF8920E162
:1023D00030E040E050E0BC01CD010E94B418DA01C9
:1023E000C9018C8B9D8BAE8BBF8B3BC08C899D892B
:1023F000AE89BF89803121E0920720E0A20720E06A
:10240000B2077CF18D81082F112707FD10958C896B
:102410009D89AE89BF8920E130E040E050E0BC01F9
:10242000CD010E94B418DC01CB01282FCE01069605
:10243000FC01E00FF11F20838C899D89AE89BF8943
:1024400020E130E040E050E0BC01CD010E94B41832
:10245000DA01C9018C8B9D8BAE8BBF8B8D81815036
:102460008D838D8188230CF031CF89819A81AB8156
:10247000BC81BC01CD010E9452108FE690E00E9409
:10248000251080E061E00E94C91288E790E00E9478
:1024900025101D826FC08D81282F332727FD309591
:1024A000CE010696FC01E20FF31F80818A30A0F472
:1024B0008D81282F332727FD3095CE010696FC010C
:1024C000E20FF31F8081882F90E0A0E0B0E0BC0114
:1024D000CD010E9452104BC08D81282F332727FD3C
:1024E0003095CE010696FC01E20FF31F8081282F64
:1024F00030E0398F288F888D998D8C30910541F18E
:10250000288D398D2D3031055CF4888D998D8A3078
:102510009105B1F0288D398D2B303105A9F027C0F8
:10252000888D998D8E309105D9F0288D398D2E307A
:10253000310594F0888D998D8F309105A9F017C0E1
:1025400081E40E940A1013C082E40E940A100FC0A6
:1025500083E40E940A100BC084E40E940A1007C0A2
:1025600085E40E940A1003C086E40E940A108D814F
:102570008F5F8D838D818E300CF48DCF69960FB671
:10258000F894DEBF0FBECDBFCF91DF911F910F91A9
:102590000895DF93CF9300D00F92CDB7DEB78A8333
:1025A0006B838B81882319F48A81898306C08B8190
:1025B000813019F48A81805C89838981806889836C
:1025C00089810E94EF0F0F900F900F90CF91DF91B4
:1025D0000895DF93CF93CDB7DEB727970FB6F89462
:1025E000DEBF0FBECDBF9C838B836D834E832F8355
:1025F0008D81882F90E0880F991F880F991F880F71
:10260000991F8A838A8180648A838A810E94EF0F5E
:1026100019820EC08981282F30E08B819C81FC01BA
:10262000E20FF31F80810E940A1089818F5F8983E6
:102630008981883078F38E816F810E94C9128D81E3
:102640000E940A1027960FB6F894DEBF0FBECDBFCA
:10265000CF91DF910895DF93CF93CDB7DEB780E0C0
:102660006CEF0E94CD0C81E060E041E00E94380AEE
:1026700081E064E041E00E94380ACF91DF91089543
:10268000DF93CF9300D00F92CDB7DEB789838981D6
:10269000282F30E03B832A838A819B8184309105F7
:1026A000C9F12A813B812530310584F48A819B81DF
:1026B0008230910529F12A813B81233031052CF5A7
:1026C0008A819B8181309105B1F04CC02A813B8188
:1026D0002630310549F18A819B8186309105FCF0D5
:1026E0002A813B812730310521F18A819B81883005
:1026F000910549F137C080E064E00E940E0D40C0B2
:1027000080E06CE00E940E0D3BC080E06CE10E9416
:102710000E0D36C080E06CE30E940E0D31C080E0EB
:102720006CE70E940E0D2CC080E06CEF0E940E0D35
:1027300027C080E06CEF0E940E0D81E060E041E078
:102740000E943C0B1DC080E06CEF0E940E0D81E0EA
:1027500060E041E00E943C0B81E064E041E00E94C7
:102760003C0B0EC080E060E00E940E0D81E060E056
:1027700040E00E943C0B81E064E040E00E943C0BA2
:102780000F900F900F90CF91DF910895DF93CF932B
:10279000CDB7DEB780E060E00E940E0D81E060E022
:1027A00040E00E943C0B81E064E040E00E943C0B72
:1027B000CF91DF910895DF93CF93CDB7DEB70E941D
:1027C000320F0E94EC0D0E94A3050E9445070E9453
:1027D0000F070E942B130E94F4130E94C7150E943A
:1027E000EA170E948414FBCFDF93CF93CDB7DEB7F7
:1027F0002E970FB6F894DEBF0FBECDBF80E062E02B
:102800000E94C9128BE790E00E94251080E090E8BA
:10281000ABEBB4E48B879C87AD87BE876B857C85EB
:102820008D859E8520E030E04AEF54E40E941F022F
:10283000DC01CB018F839887A987BA876F81788560
:1028400089859A8520E030E040E85FE30E947903C3
:1028500088232CF481E090E09E838D833FC06F81BC
:10286000788589859A8520E03FEF4FE757E40E94FD
:10287000190318164CF56B857C858D859E8520E0A7
:1028800030E040E251E40E941F02DC01CB01BC01B8
:10289000CD010E944900DC01CB019E838D830FC0D6
:1028A00088EC90E09C838B838B819C810197F1F76E
:1028B0009C838B838D819E8101979E838D838D81E7
:1028C0009E81009769F714C06F81788589859A8504
:1028D0000E944900DC01CB019E838D838D819E8106
:1028E0009A83898389819A810197F1F79A838983F1
:1028F00081E00E94EF0F2E960FB6F894DEBF0FBE58
:10290000CDBFCF91DF910895DF93CF93CDB7DEB7E1
:102910006C970FB6F894DEBF0FBECDBF0E9459185A
:102920008093110186E060E00E94C912809111013C
:10293000882F90E0A0E0B0E0BC01CD010E945210D1
:10294000809111018D3208F4F3C08FE50E94670772
:1029500081E00E94EF0F88E890E00E9425100E941D
:102960001B0780E090E0A8ECB2E4898F9A8FAB8FD0
:10297000BC8F698D7A8D8B8D9C8D20E030E04AEF85
:1029800054E40E941F02DC01CB018D8B9E8BAF8B28
:10299000B88F6D897E898F89988D20E030E040E87E
:1029A0005FE30E94790388232CF481E090E09C8B04
:1029B0008B8B3FC06D897E898F89988D20E03FEF9A
:1029C0004FE757E40E94190318164CF5698D7A8D6C
:1029D0008B8D9C8D20E030E040E251E40E941F028C
:1029E000DC01CB01BC01CD010E944900DC01CB011F
:1029F0009C8B8B8B0FC088EC90E09A8B898B89899C
:102A00009A890197F1F79A8B898B8B899C89019719
:102A10009C8B8B8B8B899C89009769F714C06D897F
:102A20007E898F89988D0E944900DC01CB019C8BA7
:102A30008B8B8B899C89988B8F878F859889019741
:102A4000F1F7988B8F870E94270780E090E0A8EC31
:102A5000B2E48B879C87AD87BE876B857C858D852F
:102A60009E8520E030E04AEF54E40E941F02DC0122
:102A7000CB018F839887A987BA876F8178858985ED
:102A80009A8520E030E040E85FE30E9479038823E4
:102A90002CF481E090E09E838D833FC06F81788528
:102AA00089859A8520E03FEF4FE757E40E9419039C
:102AB00018164CF56B857C858D859E8520E030E071
:102AC00040E251E40E941F02DC01CB01BC01CD01B8
:102AD0000E944900DC01CB019E838D830FC088ECEE
:102AE00090E09C838B838B819C810197F1F79C8381
:102AF0008B838D819E8101979E838D838D819E81A5
:102B0000009769F73BC06F81788589859A850E9417
:102B10004900DC01CB019E838D838D819E819A8348
:102B2000898389819A810197F1F79A83898326C0E5
:102B3000809111018D3240F480911101833220F097
:102B400080E50E9467071AC080911101833240F42A
:102B500080911101893120F08CE30E9467070EC03B
:102B600080911101893140F480911101843120F06C
:102B70008EE10E94670702C00E9495076C960FB60F
:102B8000F894DEBF0FBECDBFCF91DF910895DF93E4
:102B9000CF93CDB7DEB7E6970FB6F894DEBF0FBE82
:102BA000CDBF1CA68FEF8BA783E990E00E94251074
:102BB00080E061E00E94C9121CA618C00E94FB0DB3
:102BC0008BA78BA58F3FD1F38CA5282F30E0CE01AA
:102BD0008D96FC01E20FF31F8BA580838BA50E94CD
:102BE0000A108FEF8BA78CA58F5F8CA78CA58430E4
:102BF00040F39DA58091FB00981709F04EC19EA55A
:102C00008091FC00981709F048C19FA58091FD00B4
:102C1000981709F042C198A98091FE00981709F011
:102C20003CC181E00E94EF0F80EA90E00E942510F5
:102C300080E061E00E94C9121CA691C00E94FB0DB9
:102C40008BA78BA58F3FD1F38CA5282F30E0CE0129
:102C5000C296FC01E20FF31F8BA580838BA50E9417
:102C60000A1080E090E0A8ECB2E48FA398A7A9A78F
:102C7000BAA76FA178A589A59AA520E030E04AEF10
:102C800054E40E941F02DC01CB018BA39CA3ADA3E3
:102C9000BEA36BA17CA18DA19EA120E030E040E805
:102CA0005FE30E94790388232CF481E090E09AA3EB
:102CB00089A33FC06BA17CA18DA19EA120E03FEF25
:102CC0004FE757E40E94190318164CF56FA178A539
:102CD00089A59AA520E030E040E251E40E941F025D
:102CE000DC01CB01BC01CD010E944900DC01CB011C
:102CF0009AA389A30FC088EC90E098A38F8F8F8D43
:102D000098A10197F1F798A38F8F89A19AA10197B4
:102D10009AA389A389A19AA1009769F714C06BA10E
:102D20007CA18DA19EA10E944900DC01CB019AA348
:102D300089A389A19AA19E8F8D8F8D8D9E8D0197DC
:102D4000F1F79E8F8D8F8CA561E00E94C9128AE2F7
:102D50000E940A108FEF8BA78CA58F5F8CA78CA584
:102D6000843008F46ECF81E00E94EF0F9AA9809121
:102D700000019817B1F49BA980910101981789F47B
:102D80009CA980910201981761F49DA9809103018B
:102D9000981739F483EB90E00E9425100E94D41715
:102DA000FAC08BEB90E00E94251080E090E0AAE74B
:102DB000B4E4898F9A8FAB8FBC8F698D7A8D8B8DA0
:102DC0009C8D20E030E04AEF54E40E941F02DC01B9
:102DD000CB018D8B9E8BAF8BB88F6D897E898F8950
:102DE000988D20E030E040E85FE30E94790388237B
:102DF0002CF481E090E09C8B8B8B3FC06D897E89A9
:102E00008F89988D20E03FEF4FE757E40E94190328
:102E100018164CF5698D7A8D8B8D9C8D20E030E0F5
:102E200040E251E40E941F02DC01CB01BC01CD0154
:102E30000E944900DC01CB019C8B8B8B0FC088EC7E
:102E400090E09A8B898B89899A890197F1F79A8BFF
:102E5000898B8B899C8901979C8B8B8B8B899C8917
:102E6000009769F714C06D897E898F89988D0E94BB
:102E70004900DC01CB019C8B8B8B8B899C89988BC7
:102E80008F878F8598890197F1F7988B8F8781E0DD
:102E90000E94EF0F0E94C7157EC081E00E94EF0FD5
:102EA0008BEB90E00E94251080E090E0AAE7B4E46C
:102EB0008B879C87AD87BE876B857C858D859E853E
:102EC00020E030E04AEF54E40E941F02DC01CB0115
:102ED0008F839887A987BA876F81788589859A8536
:102EE00020E030E040E85FE30E94790388232CF47F
:102EF00081E090E09E838D833FC06F8178858985D6
:102F00009A8520E03FEF4FE757E40E941903181617
:102F10004CF56B857C858D859E8520E030E040E218
:102F200051E40E941F02DC01CB01BC01CD010E94D3
:102F30004900DC01CB019E838D830FC088EC90E0BB
:102F40009C838B838B819C810197F1F79C838B837E
:102F50008D819E8101979E838D838D819E810097B7
:102F600069F714C06F81788589859A850E94490028
:102F7000DC01CB019E838D838D819E819A83898321
:102F800089819A810197F1F79A83898381E00E9470
:102F9000EF0F0E94C715E6960FB6F894DEBF0FBE7E
:102FA000CDBFCF91DF910895DF93CF93CDB7DEB73B
:102FB00081E00E94EF0F89EC90E00E94251080E0F4
:102FC00061E00E94C91283ED90E00E942510CF912C
:102FD000DF910895DF93CF930F92CDB7DEB79E01B7
:102FE0002F5F3F4F81E0B9010E94E2058981853161
:102FF00030F488E0809310010E94C61344C0898198
:10300000853148F08981893230F487E0809310015E
:103010000E94C61338C08981893248F089818D3376
:1030200030F486E0809310010E94C6132CC0898181
:103030008D3348F08981873430F485E08093100126
:103040000E94C61320C08981873448F08981813568
:1030500030F484E0809310010E94C61314C089816B
:10306000813548F089818B3530F483E080931001FD
:103070000E94C61308C089818B3528F082E08093B6
:1030800010010E94C613809110010E94401386E037
:1030900061E00E94C91280911001882F90E0A0E0A9
:1030A000B0E0BC01CD010E9452100F90CF91DF9192
:1030B0000895DF93CF9300D00F92CDB7DEB79E0176
:1030C0002E5F3F4F80E0B9010E94E2058A819B811B
:1030D000CC01A0E0B0E024EF31E040E050E0BC01E2
:1030E000CD010E948118DC01CB01892F9A2FAB2FD3
:1030F000BB27898389810F900F900F90CF91DF912B
:103100000895629FD001739FF001829FE00DF11D31
:10311000649FE00DF11D929FF00D839FF00D749F51
:10312000F00D659FF00D9927729FB00DE11DF91FFD
:10313000639FB00DE11DF91FBD01CF01112408955A
:10314000AA1BBB1B51E107C0AA1FBB1FA617B707CD
:1031500010F0A61BB70B881F991F5A95A9F78095E9
:103160009095BC01CD01089597FB092E05260ED040
:1031700057FD04D014D00AD0001C38F45095409567
:10318000309521953F4F4F4F5F4F0895F6F790953B
:103190008095709561957F4F8F4F9F4F0895A1E265
:1031A0001A2EAA1BBB1BFD010DC0AA1FBB1FEE1FC1
:1031B000FF1FA217B307E407F50720F0A21BB30B0C
:1031C000E40BF50B661F771F881F991F1A9469F788
:1031D00060957095809590959B01AC01BD01CF01E4
:1031E00008952F923F924F925F926F927F928F92AB
:1031F0009F92AF92BF92CF92DF92EF92FF920F9386
:103200001F93CF93DF93CDB7DEB7CA1BDB0B0FB68F
:10321000F894DEBF0FBECDBF09942A88398848884C
:103220005F846E847D848C849B84AA84B984C884E2
:10323000DF80EE80FD800C811B81AA81B981CE0FD9
:10324000D11D0FB6F894DEBF0FBECDBFED010895BE
:04325000F894FFCF20
:1032540020746F2042696E6172793A0030620020F6
:10326400746F204865783A0030780057656C636F56
:103274006D6520486F6D6500414C61726D20466933
:10328400726500456E746572204944203A2020001E
:10329400456E7465722050617373776F7264203A5F
:1032A40020200057656C636F6D650057726F6E6701
:1032B40020706173732F49440054656D703A202067
:1032C4002743004C4544733A2000000000000000EE
:1032D4000000043738392D3435362A3132332F5231
:1032E400303D2B000102030405060731323334005C
:0632F4003433323100000A
:00000001FF
